:1000000002308A00F62A00000A108A100A118207BC
:1000100028340C34013406344E223A0043102010A8
:100020002000C4203A00A025C827CE23A0234127C2
:10003000A0214210000020105429CF242022412763
:100040004710CD2A41102000202AD22749104B24E6
:100050004F274710CD2A4110000031308400831310
:100060000008031940280630F800F701F70B36287E
:10007000F80B35287B30F700F70B3C28800B332832
:1000800008003018452888134628881783168813D7
:100090008312B0184D2808134E280817831608132A
:1000A000831230195528881256288816831688120C
:1000B0008312B0195D2808125E28081683160812EC
:1000C000000083120615831606110330F700F70BA4
:1000D0006728831206118316061183120800B101E6
:1000E0008316881700308312881B0130B1048316F1
:1000F000081700308312081B0130F7000310F70DBA
:100100007708B1048316881600308312881A0130EC
:10011000F700F70DF70DFC30F7057708B1048316EB
:10012000081600308312081A0130F700F70DF70D9A
:10013000F70DF830F7057708B1043108F80008002A
:1001400083160611061286118312061283160612F2
:1001500088170817881608168312861583168611C5
:1001600000008312061583160611000083126F200B
:100170007808B000061183160611000083120615D8
:1001800083160611C328C428000083126F20780844
:10019000AF0006118316061188130813881208127F
:1001A0008312300EF700F030F70577082F04F800BF
:1001B0007808AF00AF1FDE288316A828AD08031DFE
:1001C000E3280612E428061683160612000083129E
:1001D00086118316861100008312061183160611FC
:1001E00083122E0EAF000F30AF052F08B000412054
:1001F0002E080F39AF00B00041200800FF308316F1
:1002000085000914891409150030880086008700CC
:100210008312A4008316881308138812081206118B
:100220000612861183120612831606128312861195
:100230008316861183120611831606110F3083125E
:10024000B1002D200130A5002508033C031C3029F6
:100250000330B00041200530B1002D20A50A24292B
:100260000230B0004120A5012508033C031C4129B0
:1002700025080420A600AD012608AE00A020A50A8E
:1002800034298316081083120810241124088316B9
:100290008700831207118A110A12052B2A0B512994
:1002A00054294030AB005529AB0101302902AB077E
:1002B0002B088038AC00AD012C08AE00A02008004F
:1002C00028080C3A03196B29063A03197329023AD4
:1002D000031979297E29AD010130AE00A02002303A
:1002E000B1002D2084290130A9000230AA004E213E
:1002F0008429AD011030AE00A02084290130AD006A
:100300002808AE00A02084290800831603178C1744
:100310000C140000000083120C087F390319C9294E
:100320000313A50003170D080313A60003170F08F6
:100330000313A7002508A8006021260803178D00D5
:100340000313270803178F0083168C170C14000063
:10035000000083120C0D0E0D7F390319C9290313F8
:10036000A50003170D080313A60003170F080313B6
:10037000A7002508A8006021260803178D00031395
:10038000270803178F008D0A03198F0A0313852985
:100390000317031308002608F80125020318D329C0
:1003A0002508F700DF29F7010830A700A50DF70D94
:1003B000260877020318F700F80DA70BD6290800C6
:1003C000A501A601A701A801A901831605108312A2
:1003D00005146330F700F70BEB29EE2905101930EF
:1003E000B1002D200514831605146330F700F70BB8
:1003F000F729FA298312051C012A0030F800512A36
:10040000032A051C012A6330F700F70B052A082A86
:1004100005180E2A0030F800512A102A05180E2A55
:10042000AB012B08043C031C3B2AAA012A08073C09
:10043000031C392A051C1A2A5330F700F70B1E2A11
:10044000051C372A25302B07840083132A08073C14
:10045000F8000130F700F8080319322A0310F70DED
:10046000F80B2E2A7708000480000518352AAA0AFE
:10047000162AAB0A112A2608250727072807AC00E9
:1004800029082C020319472A0030F800512A2708AE
:10049000A0002808A1002508A2002608A30001301A
:1004A000F800780BA02A0130A900AA004E210C30D8
:1004B00003178D0000308F00031385212008A5004D
:1004C0000A30A600CB2130307807A500A8006021B3
:1004D0002008A5000A30A600CB2130307707A50000
:1004E000A8006021DF30A80060210E3003178D00C6
:1004F00000308F00031385210A30A9000130AA00C3
:100500004E21113003178D0000308F000313852119
:100510002208A5000A30A600CB2130307807A500BC
:10052000A80060212208A5000A30A600CB213030A7
:100530007707A500A80060212530A8006021AB2A1C
:100540000130A900AA004E21133003178D0000309E
:100550008F00031385218A110A12062B8316881433
:1005600083128818DA2A83160810831208142411BB
:10057000240883168700831207156430B1002D20EC
:10058000241124088316870083120711831608108C
:10059000831208106430B1002D200130A900023010
:1005A000AA004E211B3003178D0000308F0003136B
:1005B0008521F32A831608108312081024112408B9
:1005C00083168700831207110130A9000230AA00A8
:1005D0004E21243003178D0000308F000313852136
:1005E000C830B1002D208A110A12072B8401831311
:1005F0001F30830583161F149F141F159F1107308A
:100600009C00FF308312A400FE28E029AE2A052BAF
:02061000630085
:02400E00723FFF
:00000001FF
;PIC16F877A
;CRC=60E3  CREATED="16-Dec-19 13:41"
